{
  "contracts/destination.sol": {
    "Destination": {
      "abi": [
        {
          "anonymous": false,
          "inputs": [
            {
              "indexed": false,
              "internalType": "uint8",
              "name": "",
              "type": "uint8"
            }
          ],
          "name": "Reactive",
          "type": "event"
        },
        {
          "inputs": [],
          "name": "launch",
          "outputs": [],
          "stateMutability": "nonpayable",
          "type": "function"
        }
      ],
      "evm": {
        "bytecode": {
          "linkReferences": {},
          "object": "6080604052348015600f57600080fd5b506101068061001f6000396000f3fe6080604052348015600f57600080fd5b506004361060285760003560e01c806301339c2114602d575b600080fd5b60336035565b005b7f941c003b62adc0cc74243df1b7c8f46bfbf8967762dc8b11db2d75f57b8c221c600a6040516063919060b7565b60405180910390a1565b6000819050919050565b600060ff82169050919050565b6000819050919050565b600060a3609f609b84606d565b6084565b6077565b9050919050565b60b181608e565b82525050565b600060208201905060ca600083018460aa565b9291505056fea2646970667358221220095efba5a9a85dd0b7e287b16420b6d86c8077225993ae2868b27309388209d664736f6c634300081b0033",
          "opcodes": "PUSH1 0x80 PUSH1 0x40 MSTORE CALLVALUE DUP1 ISZERO PUSH1 0xF JUMPI PUSH1 0x0 DUP1 REVERT JUMPDEST POP PUSH2 0x106 DUP1 PUSH2 0x1F PUSH1 0x0 CODECOPY PUSH1 0x0 RETURN INVALID PUSH1 0x80 PUSH1 0x40 MSTORE CALLVALUE DUP1 ISZERO PUSH1 0xF JUMPI PUSH1 0x0 DUP1 REVERT JUMPDEST POP PUSH1 0x4 CALLDATASIZE LT PUSH1 0x28 JUMPI PUSH1 0x0 CALLDATALOAD PUSH1 0xE0 SHR DUP1 PUSH4 0x1339C21 EQ PUSH1 0x2D JUMPI JUMPDEST PUSH1 0x0 DUP1 REVERT JUMPDEST PUSH1 0x33 PUSH1 0x35 JUMP JUMPDEST STOP JUMPDEST PUSH32 0x941C003B62ADC0CC74243DF1B7C8F46BFBF8967762DC8B11DB2D75F57B8C221C PUSH1 0xA PUSH1 0x40 MLOAD PUSH1 0x63 SWAP2 SWAP1 PUSH1 0xB7 JUMP JUMPDEST PUSH1 0x40 MLOAD DUP1 SWAP2 SUB SWAP1 LOG1 JUMP JUMPDEST PUSH1 0x0 DUP2 SWAP1 POP SWAP2 SWAP1 POP JUMP JUMPDEST PUSH1 0x0 PUSH1 0xFF DUP3 AND SWAP1 POP SWAP2 SWAP1 POP JUMP JUMPDEST PUSH1 0x0 DUP2 SWAP1 POP SWAP2 SWAP1 POP JUMP JUMPDEST PUSH1 0x0 PUSH1 0xA3 PUSH1 0x9F PUSH1 0x9B DUP5 PUSH1 0x6D JUMP JUMPDEST PUSH1 0x84 JUMP JUMPDEST PUSH1 0x77 JUMP JUMPDEST SWAP1 POP SWAP2 SWAP1 POP JUMP JUMPDEST PUSH1 0xB1 DUP2 PUSH1 0x8E JUMP JUMPDEST DUP3 MSTORE POP POP JUMP JUMPDEST PUSH1 0x0 PUSH1 0x20 DUP3 ADD SWAP1 POP PUSH1 0xCA PUSH1 0x0 DUP4 ADD DUP5 PUSH1 0xAA JUMP JUMPDEST SWAP3 SWAP2 POP POP JUMP INVALID LOG2 PUSH5 0x6970667358 0x22 SLT KECCAK256 MULMOD MCOPY 0xFB 0xA5 0xA9 0xA8 TSTORE 0xD0 0xB7 0xE2 DUP8 0xB1 PUSH5 0x20B6D86C80 PUSH24 0x225993AE2868B27309388209D664736F6C634300081B0033 "
        },
        "methodIdentifiers": {
          "launch()": "01339c21"
        }
      }
    }
  }
}