{
  "_format": "hh-sol-artifact-1",
  "contractName": "Origin",
  "sourceName": "contracts/origin.sol",
  "abi": [
    {
      "anonymous": false,
      "inputs": [
        {
          "indexed": false,
          "internalType": "uint8",
          "name": "",
          "type": "uint8"
        }
      ],
      "name": "Reactive",
      "type": "event"
    },
    {
      "anonymous": false,
      "inputs": [
        {
          "indexed": false,
          "internalType": "uint256",
          "name": "amount",
          "type": "uint256"
        },
        {
          "indexed": false,
          "internalType": "uint256",
          "name": "when",
          "type": "uint256"
        }
      ],
      "name": "Withdrawal",
      "type": "event"
    },
    {
      "inputs": [],
      "name": "launch",
      "outputs": [],
      "stateMutability": "nonpayable",
      "type": "function"
    },
    {
      "inputs": [],
      "name": "owner",
      "outputs": [
        {
          "internalType": "address payable",
          "name": "",
          "type": "address"
        }
      ],
      "stateMutability": "view",
      "type": "function"
    },
    {
      "inputs": [],
      "name": "unlockTime",
      "outputs": [
        {
          "internalType": "uint256",
          "name": "",
          "type": "uint256"
        }
      ],
      "stateMutability": "view",
      "type": "function"
    }
  ],
  "bytecode": "0x6080604052348015600f57600080fd5b506102258061001f6000396000f3fe608060405234801561001057600080fd5b50600436106100415760003560e01c806301339c2114610046578063251c1aa3146100505780638da5cb5b1461006e575b600080fd5b61004e61008c565b005b6100586100c6565b604051610065919061010b565b60405180910390f35b6100766100cc565b6040516100839190610167565b60405180910390f35b7f941c003b62adc0cc74243df1b7c8f46bfbf8967762dc8b11db2d75f57b8c221c600a6040516100bc91906101d4565b60405180910390a1565b60005481565b600160009054906101000a900473ffffffffffffffffffffffffffffffffffffffff1681565b6000819050919050565b610105816100f2565b82525050565b600060208201905061012060008301846100fc565b92915050565b600073ffffffffffffffffffffffffffffffffffffffff82169050919050565b600061015182610126565b9050919050565b61016181610146565b82525050565b600060208201905061017c6000830184610158565b92915050565b6000819050919050565b600060ff82169050919050565b6000819050919050565b60006101be6101b96101b484610182565b610199565b61018c565b9050919050565b6101ce816101a3565b82525050565b60006020820190506101e960008301846101c5565b9291505056fea2646970667358221220aa8d194e92d6fde3289f5648ce797a695662ce23df3914456fd209db99eb040c64736f6c634300081b0033",
  "linkReferences": {},
  "deployedLinkReferences": {}
}